{
  "contractName": "smartcontract",
  "abi": [
    {
      "inputs": [],
      "name": "n",
      "outputs": [
        {
          "internalType": "uint256",
          "name": "",
          "type": "uint256"
        }
      ],
      "stateMutability": "view",
      "type": "function",
      "constant": true
    },
    {
      "inputs": [
        {
          "internalType": "uint256",
          "name": "_n",
          "type": "uint256"
        }
      ],
      "name": "setn",
      "outputs": [],
      "stateMutability": "nonpayable",
      "type": "function"
    }
  ],
  "bytecode": "0x6080604052600a60005534801561001557600080fd5b5060b1806100246000396000f3fe6080604052348015600f57600080fd5b506004361060325760003560e01c8063219073aa1460375780632e52d606146049575b600080fd5b604760423660046063565b600055565b005b605160005481565b60405190815260200160405180910390f35b600060208284031215607457600080fd5b503591905056fea264697066735822122089ba69cdbc1da0d5636791fccd24b2fe8bb3cfec15aa88ec85d11545b0fcbf0764736f6c634300080f0033",
  "immutableReferences": {},
  "source": "//SPDX-License-Identifier: UNLICENSED\npragma solidity ^0.8.14;\ncontract smartcontract {\n    uint public n = 10;\n    function setn(uint _n) public {\n        n = _n;\n    }\n}\n",
  "sourcePath": "/home/roland/myd/roland/work/vougee.gmbh/smartminimalreact/smartcontract/contracts/smartcontract.sol",
  "compiler": {
    "name": "solc",
    "version": "0.8.15+commit.e14f2714.Emscripten.clang"
  },
  "schemaVersion": "3.4.7",
  "updatedAt": "2022-06-17T14:21:58.991Z",
  "networkType": "ethereum",
  "devdoc": {
    "kind": "dev",
    "methods": {},
    "version": 1
  },
  "userdoc": {
    "kind": "user",
    "methods": {},
    "version": 1
  }
}